:1000000004308A001E2C00000A108A100A11820790
:1000100028340C34013406340C2B6F36F430EA1ECD
:1000200025335600C432E732F21EA53A00153330AC
:1000300084008313000803192B280130F800F7010E
:10004000F70B2028F80B1F284A30F700F70B26285B
:100050002928800B1D2808003A0EF039F7000F30D0
:1000600006057704860000000614362806100800EE
:100070000608F700060E0F39F80008008316061070
:1000800086100611831286100F3083160605F0388D
:100090008600831206150000061400003820780838
:1000A000BA00061000000614000038207808B900D5
:1000B00006100F3083160605860083123A0EF700ED
:1000C000F030F70577083904F8007808B900B91B53
:1000D0004428371C861037188614000006110000CB
:1000E0000610380EB9000F30B9053908BA002C20B7
:1000F00038080F39B900BA002C2008000F308316D9
:100100000605860006108610061183128610061159
:1001100006100F30B30017200130A5002508033C5E
:10012000031C9A280330BA002C200530B300172096
:10013000A50A8E280230BA002C200530B300172003
:10014000A5012508033C031CAE2825080420A600B1
:10015000B7012608B8003E20A50AA1288A110A1274
:100160004F2C8E30F7002608F8002508F900FA0118
:10017000F808031DC5287908F800F9010830F702CE
:10018000F808031DC528F701CD280310F81BCC285B
:10019000F90DF80DF703C528F8138A110A12592C26
:1001A000250803199529B100290803199529B102D9
:1001B000031CDF287F30B10703189529E52881301B
:1001C000B102031C9529031995293108F700F8019C
:1001D000F901FA01B0012608AF00AF172708AE00F9
:1001E0002808AD001930B1002C08AD020318082909
:1001F0000130AE0203180829AF0203180829B00223
:1002000003180829B00AAF0AAE0A2C08AD073A292C
:100210002B08AE02031823290130AF02031823294B
:10022000B00203182329B00AAF0A2B08AE072C0826
:10023000AD07031C3A29AE0A031D3A29AF0A031D74
:100240003A29B00A3A292A088038AF020318392916
:100250000130B00203183929B00A2A088038AF07E4
:100260002B08AE07031C1729AF0A031D1729B00A74
:1002700017297A14B10B3D2948290310AD0DAE0D95
:10028000AF0DB00D0310FA0DF90DF80DB20DF428F5
:10029000321C50290310F80CF90CFA0CB20C53293B
:1002A000F70303199529B21B7C290310AD0DAE0D80
:1002B000AF0DB00D2C08AD02031868290130AE0255
:1002C00003186829AF0203186829B002031C8B29A0
:1002D0002B08AE02031873290130AF0203187329EB
:1002E000B002031C8B292A088038AF0203187C292E
:1002F0000130B002031C8B29FA0A031D8B29F90A6D
:10030000031D8B29F80A031D8B29F70A0319952968
:10031000F80CF90CFA0C2608B1002A08B106B11F36
:100320009329F8179929F8139929F701F801F90188
:10033000FA018A110A12682C340B9F29A229403035
:10034000B500A329B50101303302B507350880385F
:10035000B600B7013608B8003E2008003208073A58
:100360000319BC290B3A0319C129063A0319C929F3
:10037000023A0319CF29D4290130B300B4009C21DB
:10038000D929B7010130B8003E200230B300172050
:10039000D9290130B3000230B4009C21D929B7011A
:1003A0001030B8003E20D9290130B7003208B8001B
:1003B0003E2008000B08A6008B13831603178C172A
:1003C0000C140000000003180C2A83120C087F395B
:1003D0000313A70003170D080313A80003170F0842
:1003E0000313A9002708B200AE21280803178D00C7
:1003F0000313290803178F0083168C170C140000B1
:10040000000083120313A50B062A092A831603177B
:100410000C2A2B2A8316031783120C0D0E0D7F391D
:100420000313A70003170D080313A80003170F08F1
:100430000313A9002708B200AE21280803178D0076
:100440000313290803178F008D0A03198F0A03105D
:100450000313A50BDD29A61B8B1708008318332A6D
:100460003A3084008313F701F801F901FA01BA0167
:10047000BB01BC01BD013908380437043604031937
:10048000712A2030BE000310B20DB30DB40DB50DAE
:10049000BA0DBB0DBC0DBD0D39083D02031D5A2A16
:1004A00038083C02031D5A2A37083B02031D5A2A0A
:1004B00036083A02031C6B2A3608BA023708031CB6
:1004C000370FBB023808031C380FBC023908031C65
:1004D000390FBD020314F70DF80DF90DFA0DBE0B1F
:1004E000432A3A088000840A3B088000840A3C08BA
:1004F0008000840A3D08800008000408AA0029083A
:10050000AC0003190F2B2808B5002708B4002608F3
:10051000B3002508B200B901B8012030B70082301D
:10052000B60032080319012BBA0036080319012B53
:10053000BA070318A22A7F30BA02031C012B031941
:10054000012BA62A8130BA070318012B3A08F700BD
:10055000F801F901FA013308BE00BE173408BD00E6
:100560003508BC001830BA00BB013C1CCF2A390842
:10057000FA07031CC12AF90A031DC12AF80A031944
:10058000BB173808F907031CC82AF80A0319BB1758
:100590003708B400B4173408F8070318BB17BB0DAD
:1005A000F80CF90CFA0CBE0CBD0CBC0C0310BA0B09
:1005B000B42A0130F7070318012BF81BE62ABE0DF9
:1005C000FA0DF90DF80DF7030319012BBE1FF72AD9
:1005D000FA0A031DF72AF90A031DF72AF80A031D70
:1005E000F72AF80CF90CFA0CF70A0319012B330857
:1005F000BB003708BB06BB1FFF2AF817052BF813F3
:10060000052BF701F801F901FA017A08A800790829
:10061000A7007808A6007708A500AC0B832A280855
:10062000B5002708B4002608B3002508B200320838
:10063000B63CB200FA013308B600B3170310B30C8E
:10064000B40CB50CFA0CF90CF80CF70CB20B1E2B11
:10065000B61F352BF709F809F909FA09F70A031942
:10066000F80A0319F90A0319FA0A7A08A80079089E
:10067000A7007808A6007708A500A81F4C2BAA039E
:10068000AA16A509A609A709A809A50A0319A60A71
:100690000319A70A0319A80A3B30B1009A30B00029
:1006A000CA30AF00AE010A30AC0029080319AA0A0B
:1006B00083142530840083132808B5002708B4006C
:1006C0002608B3002508B2003108B9003008B80088
:1006D0002F08B7002E08B6002E227808F708031D51
:1006E000842B290A2C020319842B2A080319862B30
:1006F0000F392C0203197E2B0318B62BAA1BB62B1D
:100700002A1B862B2030B22B2030AA05AA1E942B40
:10071000AA122908031DAA037708AA002D30B200E7
:10072000AE212A08F700AA0129082C02031DA22BDA
:100730007708AA002E30B200AE212A08F700203038
:10074000AA0500303030AA1EB22BAA122908031DB8
:10075000AA037708AA002D30B200AE212A08F700BC
:10076000AA013030F7077708B200AE2183103108B4
:10077000B5003008B4002F08B3002E08B200B9014C
:10078000B801B7010A30B6002E227A08B100790804
:10079000B0007808AF007708AE00AC0B582B8A1178
:1007A0000A128B2C2808F80127020318DA2B2708D5
:1007B000F700E62BF7010830A900A70DF70D280870
:1007C00077020318F700F80DA90BDD2B0800780855
:1007D0002508A7006430A800D2237708A500780870
:1007E0003030031DFA2BA61C012CA619012C261A49
:1007F0002030FD2BA61126122614F8077808B20027
:10080000AE212508A7000A30A800D2237708A5004A
:1008100078083030031D122CA619162C261C162C15
:10082000261A2030F8077808B200AE213030A5072C
:100830002508B200AE218A110A12A22C83161F14B9
:100840009F141F159F1183131F30830509128312F4
:100850009001F0309D050030F80005389200FF301F
:1008600083169200831207110C3097001F139F17F5
:1008700083169F1383121F1483161F109F101F11BE
:100880009F11203085000030860087002030F8005E
:1008900083121F08C73978049F0087017E289501BD
:1008A0001F151F19512C1E08A000A6012008A50025
:1008B000B1287A08A8007908A7007808A600770868
:1008C000A500AC01AB014C30AA008430A900D028AF
:1008D0007A08A4007908A3007808A2007708A1008C
:1008E00087150712200895000C3003178D00003083
:1008F0008F00031008300313A500DA21893084002B
:100900002408A8002308A7002208A6002108A500A3
:100910000230A9007D2A5630B200AE210130B3006A
:100920000230B4009C21123003178D0000308F007C
:10093000031006300313A500DA212008A5001B30A0
:10094000A600E72B0230A500FA30B3001720A50B54
:06095000A42C502C6300F2
:02400E00733FFE
:00000001FF
;PIC16F877
;CRC=729F  CREATED="17-Oca-22 00:57"
